{
  "_format": "hh-sol-artifact-1",
  "contractName": "Ecommerce",
  "sourceName": "contracts/Ecom.sol",
  "abi": [
    {
      "inputs": [],
      "stateMutability": "nonpayable",
      "type": "constructor"
    },
    {
      "anonymous": false,
      "inputs": [
        {
          "indexed": false,
          "internalType": "address",
          "name": "buyer",
          "type": "address"
        },
        {
          "indexed": false,
          "internalType": "string",
          "name": "Id",
          "type": "string"
        },
        {
          "indexed": false,
          "internalType": "uint256",
          "name": "time",
          "type": "uint256"
        }
      ],
      "name": "Buy",
      "type": "event"
    },
    {
      "anonymous": false,
      "inputs": [
        {
          "indexed": false,
          "internalType": "string",
          "name": "name",
          "type": "string"
        },
        {
          "indexed": false,
          "internalType": "uint256",
          "name": "price",
          "type": "uint256"
        },
        {
          "indexed": false,
          "internalType": "uint256",
          "name": "quantity",
          "type": "uint256"
        }
      ],
      "name": "List",
      "type": "event"
    },
    {
      "inputs": [
        {
          "internalType": "address",
          "name": "",
          "type": "address"
        },
        {
          "internalType": "uint256",
          "name": "",
          "type": "uint256"
        }
      ],
      "name": "Orders",
      "outputs": [
        {
          "internalType": "uint256",
          "name": "timestamp",
          "type": "uint256"
        },
        {
          "components": [
            {
              "internalType": "string",
              "name": "id",
              "type": "string"
            },
            {
              "internalType": "string",
              "name": "name",
              "type": "string"
            },
            {
              "internalType": "uint256",
              "name": "price",
              "type": "uint256"
            },
            {
              "internalType": "string",
              "name": "description",
              "type": "string"
            },
            {
              "internalType": "string",
              "name": "category",
              "type": "string"
            },
            {
              "internalType": "string",
              "name": "image",
              "type": "string"
            },
            {
              "internalType": "uint256",
              "name": "ratings",
              "type": "uint256"
            },
            {
              "internalType": "uint256",
              "name": "stocks",
              "type": "uint256"
            }
          ],
          "internalType": "struct Ecommerce.products",
          "name": "item",
          "type": "tuple"
        }
      ],
      "stateMutability": "view",
      "type": "function"
    },
    {
      "inputs": [
        {
          "internalType": "string",
          "name": "",
          "type": "string"
        }
      ],
      "name": "allItems",
      "outputs": [
        {
          "internalType": "string",
          "name": "id",
          "type": "string"
        },
        {
          "internalType": "string",
          "name": "name",
          "type": "string"
        },
        {
          "internalType": "uint256",
          "name": "price",
          "type": "uint256"
        },
        {
          "internalType": "string",
          "name": "description",
          "type": "string"
        },
        {
          "internalType": "string",
          "name": "category",
          "type": "string"
        },
        {
          "internalType": "string",
          "name": "image",
          "type": "string"
        },
        {
          "internalType": "uint256",
          "name": "ratings",
          "type": "uint256"
        },
        {
          "internalType": "uint256",
          "name": "stocks",
          "type": "uint256"
        }
      ],
      "stateMutability": "view",
      "type": "function"
    },
    {
      "inputs": [
        {
          "internalType": "string",
          "name": "_id",
          "type": "string"
        }
      ],
      "name": "buyProduct",
      "outputs": [],
      "stateMutability": "payable",
      "type": "function"
    },
    {
      "inputs": [
        {
          "internalType": "string",
          "name": "_id",
          "type": "string"
        }
      ],
      "name": "decreaseStock",
      "outputs": [],
      "stateMutability": "nonpayable",
      "type": "function"
    },
    {
      "inputs": [],
      "name": "getAllProducts",
      "outputs": [
        {
          "components": [
            {
              "internalType": "string",
              "name": "id",
              "type": "string"
            },
            {
              "internalType": "string",
              "name": "name",
              "type": "string"
            },
            {
              "internalType": "uint256",
              "name": "price",
              "type": "uint256"
            },
            {
              "internalType": "string",
              "name": "description",
              "type": "string"
            },
            {
              "internalType": "string",
              "name": "category",
              "type": "string"
            },
            {
              "internalType": "string",
              "name": "image",
              "type": "string"
            },
            {
              "internalType": "uint256",
              "name": "ratings",
              "type": "uint256"
            },
            {
              "internalType": "uint256",
              "name": "stocks",
              "type": "uint256"
            }
          ],
          "internalType": "struct Ecommerce.products[]",
          "name": "",
          "type": "tuple[]"
        }
      ],
      "stateMutability": "view",
      "type": "function"
    },
    {
      "inputs": [],
      "name": "getMyOrders",
      "outputs": [
        {
          "components": [
            {
              "internalType": "uint256",
              "name": "timestamp",
              "type": "uint256"
            },
            {
              "components": [
                {
                  "internalType": "string",
                  "name": "id",
                  "type": "string"
                },
                {
                  "internalType": "string",
                  "name": "name",
                  "type": "string"
                },
                {
                  "internalType": "uint256",
                  "name": "price",
                  "type": "uint256"
                },
                {
                  "internalType": "string",
                  "name": "description",
                  "type": "string"
                },
                {
                  "internalType": "string",
                  "name": "category",
                  "type": "string"
                },
                {
                  "internalType": "string",
                  "name": "image",
                  "type": "string"
                },
                {
                  "internalType": "uint256",
                  "name": "ratings",
                  "type": "uint256"
                },
                {
                  "internalType": "uint256",
                  "name": "stocks",
                  "type": "uint256"
                }
              ],
              "internalType": "struct Ecommerce.products",
              "name": "item",
              "type": "tuple"
            }
          ],
          "internalType": "struct Ecommerce.order[]",
          "name": "",
          "type": "tuple[]"
        }
      ],
      "stateMutability": "view",
      "type": "function"
    },
    {
      "inputs": [
        {
          "internalType": "string",
          "name": "_id",
          "type": "string"
        },
        {
          "internalType": "string",
          "name": "_name",
          "type": "string"
        },
        {
          "internalType": "uint256",
          "name": "_price",
          "type": "uint256"
        },
        {
          "internalType": "string",
          "name": "_description",
          "type": "string"
        },
        {
          "internalType": "string",
          "name": "_category",
          "type": "string"
        },
        {
          "internalType": "string",
          "name": "_image",
          "type": "string"
        },
        {
          "internalType": "uint256",
          "name": "_ratings",
          "type": "uint256"
        },
        {
          "internalType": "uint256",
          "name": "_stocks",
          "type": "uint256"
        }
      ],
      "name": "listProducts",
      "outputs": [],
      "stateMutability": "nonpayable",
      "type": "function"
    },
    {
      "inputs": [],
      "name": "name",
      "outputs": [
        {
          "internalType": "string",
          "name": "",
          "type": "string"
        }
      ],
      "stateMutability": "view",
      "type": "function"
    },
    {
      "inputs": [
        {
          "internalType": "address",
          "name": "",
          "type": "address"
        }
      ],
      "name": "orderCount",
      "outputs": [
        {
          "internalType": "uint256",
          "name": "",
          "type": "uint256"
        }
      ],
      "stateMutability": "view",
      "type": "function"
    },
    {
      "inputs": [],
      "name": "owner",
      "outputs": [
        {
          "internalType": "address",
          "name": "",
          "type": "address"
        }
      ],
      "stateMutability": "view",
      "type": "function"
    },
    {
      "inputs": [
        {
          "internalType": "uint256",
          "name": "",
          "type": "uint256"
        }
      ],
      "name": "productIds",
      "outputs": [
        {
          "internalType": "string",
          "name": "",
          "type": "string"
        }
      ],
      "stateMutability": "view",
      "type": "function"
    },
    {
      "inputs": [],
      "name": "withdraw",
      "outputs": [],
      "stateMutability": "nonpayable",
      "type": "function"
    }
  ],
  "bytecode": "0x608060405234801561001057600080fd5b506040518060400160405280601781526020017f446563656e7472616c697a65642045636f6d6d657263650000000000000000008152506000908161005591906102ec565b5033600160006101000a81548173ffffffffffffffffffffffffffffffffffffffff021916908373ffffffffffffffffffffffffffffffffffffffff1602179055506103be565b600081519050919050565b7f4e487b7100000000000000000000000000000000000000000000000000000000600052604160045260246000fd5b7f4e487b7100000000000000000000000000000000000000000000000000000000600052602260045260246000fd5b6000600282049050600182168061011d57607f821691505b6020821081036101305761012f6100d6565b5b50919050565b60008190508160005260206000209050919050565b60006020601f8301049050919050565b600082821b905092915050565b6000600883026101987fffffffffffffffffffffffffffffffffffffffffffffffffffffffffffffffff8261015b565b6101a2868361015b565b95508019841693508086168417925050509392505050565b6000819050919050565b6000819050919050565b60006101e96101e46101df846101ba565b6101c4565b6101ba565b9050919050565b6000819050919050565b610203836101ce565b61021761020f826101f0565b848454610168565b825550505050565b600090565b61022c61021f565b6102378184846101fa565b505050565b5b8181101561025b57610250600082610224565b60018101905061023d565b5050565b601f8211156102a05761027181610136565b61027a8461014b565b81016020851015610289578190505b61029d6102958561014b565b83018261023c565b50505b505050565b600082821c905092915050565b60006102c3600019846008026102a5565b1980831691505092915050565b60006102dc83836102b2565b9150826002028217905092915050565b6102f58261009c565b67ffffffffffffffff81111561030e5761030d6100a7565b5b6103188254610105565b61032382828561025f565b600060209050601f8311600181146103565760008415610344578287015190505b61034e85826102d0565b8655506103b6565b601f19841661036486610136565b60005b8281101561038c57848901518255600182019150602085019450602081019050610367565b868310156103a957848901516103a5601f8916826102b2565b8355505b6001600288020188555050505b505050505050565b612de9806103cd6000396000f3fe6080604052600436106100a75760003560e01c8063ad66895011610064578063ad6689501461019d578063bab5933a146101db578063cb51bba914610206578063d22d2ec014610243578063d95d22451461026c578063e339a66914610295576100a7565b806302ee3a52146100ac57806306fdde03146100d7578063364e022f146101025780633ccfd60b1461011e578063713d856b146101355780638da5cb5b14610172575b600080fd5b3480156100b857600080fd5b506100c16102d9565b6040516100ce9190611f3c565b60405180910390f35b3480156100e357600080fd5b506100ec6106ba565b6040516100f99190611fa8565b60405180910390f35b61011c60048036038101906101179190612113565b610748565b005b34801561012a57600080fd5b50610133610ccf565b005b34801561014157600080fd5b5061015c600480360381019061015791906121ba565b610dfa565b60405161016991906121f6565b60405180910390f35b34801561017e57600080fd5b50610187610e12565b6040516101949190612220565b60405180910390f35b3480156101a957600080fd5b506101c460048036038101906101bf9190612267565b610e38565b6040516101d2929190612373565b60405180910390f35b3480156101e757600080fd5b506101f061116c565b6040516101fd91906124a2565b60405180910390f35b34801561021257600080fd5b5061022d600480360381019061022891906124c4565b6115c7565b60405161023a9190611fa8565b60405180910390f35b34801561024f57600080fd5b5061026a60048036038101906102659190612113565b611673565b005b34801561027857600080fd5b50610293600480360381019061028e91906124f1565b6117a3565b005b3480156102a157600080fd5b506102bc60048036038101906102b79190612113565b61199a565b6040516102d0989796959493929190612633565b60405180910390f35b6060600060058054905067ffffffffffffffff8111156102fc576102fb611fe8565b5b60405190808252806020026020018201604052801561033557816020015b610322611ca0565b81526020019060019003908161031a5790505b50905060005b6005805490508110156106b25760026005828154811061035e5761035d6126d4565b5b906000526020600020016040516103759190612806565b90815260200160405180910390206040518061010001604052908160008201805461039f90612732565b80601f01602080910402602001604051908101604052809291908181526020018280546103cb90612732565b80156104185780601f106103ed57610100808354040283529160200191610418565b820191906000526020600020905b8154815290600101906020018083116103fb57829003601f168201915b5050505050815260200160018201805461043190612732565b80601f016020809104026020016040519081016040528092919081815260200182805461045d90612732565b80156104aa5780601f1061047f576101008083540402835291602001916104aa565b820191906000526020600020905b81548152906001019060200180831161048d57829003601f168201915b50505050508152602001600282015481526020016003820180546104cd90612732565b80601f01602080910402602001604051908101604052809291908181526020018280546104f990612732565b80156105465780601f1061051b57610100808354040283529160200191610546565b820191906000526020600020905b81548152906001019060200180831161052957829003601f168201915b5050505050815260200160048201805461055f90612732565b80601f016020809104026020016040519081016040528092919081815260200182805461058b90612732565b80156105d85780601f106105ad576101008083540402835291602001916105d8565b820191906000526020600020905b8154815290600101906020018083116105bb57829003601f168201915b505050505081526020016005820180546105f190612732565b80601f016020809104026020016040519081016040528092919081815260200182805461061d90612732565b801561066a5780601f1061063f5761010080835404028352916020019161066a565b820191906000526020600020905b81548152906001019060200180831161064d57829003601f168201915b505050505081526020016006820154815260200160078201548152505082828151811061069a576106996126d4565b5b6020026020010181905250808060010191505061033b565b508091505090565b600080546106c790612732565b80601f01602080910402602001604051908101604052809291908181526020018280546106f390612732565b80156107405780601f1061071557610100808354040283529160200191610740565b820191906000526020600020905b81548152906001019060200180831161072357829003601f168201915b505050505081565b600060028260405161075a919061284e565b90815260200160405180910390206040518061010001604052908160008201805461078490612732565b80601f01602080910402602001604051908101604052809291908181526020018280546107b090612732565b80156107fd5780601f106107d2576101008083540402835291602001916107fd565b820191906000526020600020905b8154815290600101906020018083116107e057829003601f168201915b5050505050815260200160018201805461081690612732565b80601f016020809104026020016040519081016040528092919081815260200182805461084290612732565b801561088f5780601f106108645761010080835404028352916020019161088f565b820191906000526020600020905b81548152906001019060200180831161087257829003601f168201915b50505050508152602001600282015481526020016003820180546108b290612732565b80601f01602080910402602001604051908101604052809291908181526020018280546108de90612732565b801561092b5780601f106109005761010080835404028352916020019161092b565b820191906000526020600020905b81548152906001019060200180831161090e57829003601f168201915b5050505050815260200160048201805461094490612732565b80601f016020809104026020016040519081016040528092919081815260200182805461097090612732565b80156109bd5780601f10610992576101008083540402835291602001916109bd565b820191906000526020600020905b8154815290600101906020018083116109a057829003601f168201915b505050505081526020016005820180546109d690612732565b80601f0160208091040260200160405190810160405280929190818152602001828054610a0290612732565b8015610a4f5780601f10610a2457610100808354040283529160200191610a4f565b820191906000526020600020905b815481529060010190602001808311610a3257829003601f168201915b5050505050815260200160068201548152602001600782015481525050905080604001513414610ab4576040517f08c379a0000000000000000000000000000000000000000000000000000000008152600401610aab906128b1565b60405180910390fd5b60006040518060400160405280428152602001838152509050600360003373ffffffffffffffffffffffffffffffffffffffff1673ffffffffffffffffffffffffffffffffffffffff1681526020019081526020016000206000815480929190610b1d90612900565b919050555080600460003373ffffffffffffffffffffffffffffffffffffffff1673ffffffffffffffffffffffffffffffffffffffff1681526020019081526020016000206000600360003373ffffffffffffffffffffffffffffffffffffffff1673ffffffffffffffffffffffffffffffffffffffff168152602001908152602001600020548152602001908152602001600020600082015181600001556020820151816001016000820151816000019081610bda9190612adf565b506020820151816001019081610bf09190612adf565b50604082015181600201556060820151816003019081610c109190612adf565b506080820151816004019081610c269190612adf565b5060a0820151816005019081610c3c9190612adf565b5060c0820151816006015560e0820151816007015550509050506001600284604051610c68919061284e565b90815260200160405180910390206007016000828254610c889190612bb1565b925050819055507f1160f7e42acc25ce40a0499151736a0092c23685ef042576f568bd2435a11a36338442604051610cc293929190612be5565b60405180910390a1505050565b600160009054906101000a900473ffffffffffffffffffffffffffffffffffffffff1673ffffffffffffffffffffffffffffffffffffffff163373ffffffffffffffffffffffffffffffffffffffff1614610d5f576040517f08c379a0000000000000000000000000000000000000000000000000000000008152600401610d5690612c6f565b60405180910390fd5b6000600160009054906101000a900473ffffffffffffffffffffffffffffffffffffffff1673ffffffffffffffffffffffffffffffffffffffff1647604051610da790612cc0565b60006040518083038185875af1925050503d8060008114610de4576040519150601f19603f3d011682016040523d82523d6000602084013e610de9565b606091505b5050905080610df757600080fd5b50565b60036020528060005260406000206000915090505481565b600160009054906101000a900473ffffffffffffffffffffffffffffffffffffffff1681565b6004602052816000526040600020602052806000526040600020600091509150508060000154908060010160405180610100016040529081600082018054610e7f90612732565b80601f0160208091040260200160405190810160405280929190818152602001828054610eab90612732565b8015610ef85780601f10610ecd57610100808354040283529160200191610ef8565b820191906000526020600020905b815481529060010190602001808311610edb57829003601f168201915b50505050508152602001600182018054610f1190612732565b80601f0160208091040260200160405190810160405280929190818152602001828054610f3d90612732565b8015610f8a5780601f10610f5f57610100808354040283529160200191610f8a565b820191906000526020600020905b815481529060010190602001808311610f6d57829003601f168201915b5050505050815260200160028201548152602001600382018054610fad90612732565b80601f0160208091040260200160405190810160405280929190818152602001828054610fd990612732565b80156110265780601f10610ffb57610100808354040283529160200191611026565b820191906000526020600020905b81548152906001019060200180831161100957829003601f168201915b5050505050815260200160048201805461103f90612732565b80601f016020809104026020016040519081016040528092919081815260200182805461106b90612732565b80156110b85780601f1061108d576101008083540402835291602001916110b8565b820191906000526020600020905b81548152906001019060200180831161109b57829003601f168201915b505050505081526020016005820180546110d190612732565b80601f01602080910402602001604051908101604052809291908181526020018280546110fd90612732565b801561114a5780601f1061111f5761010080835404028352916020019161114a565b820191906000526020600020905b81548152906001019060200180831161112d57829003601f168201915b5050505050815260200160068201548152602001600782015481525050905082565b60606000600360003373ffffffffffffffffffffffffffffffffffffffff1673ffffffffffffffffffffffffffffffffffffffff16815260200190815260200160002054905060008167ffffffffffffffff8111156111ce576111cd611fe8565b5b60405190808252806020026020018201604052801561120757816020015b6111f4611ce5565b8152602001906001900390816111ec5790505b50905060005b828110156115be57600460003373ffffffffffffffffffffffffffffffffffffffff1673ffffffffffffffffffffffffffffffffffffffff16815260200190815260200160002060006001836112639190612cd5565b81526020019081526020016000206040518060400160405290816000820154815260200160018201604051806101000160405290816000820180546112a790612732565b80601f01602080910402602001604051908101604052809291908181526020018280546112d390612732565b80156113205780601f106112f557610100808354040283529160200191611320565b820191906000526020600020905b81548152906001019060200180831161130357829003601f168201915b5050505050815260200160018201805461133990612732565b80601f016020809104026020016040519081016040528092919081815260200182805461136590612732565b80156113b25780601f10611387576101008083540402835291602001916113b2565b820191906000526020600020905b81548152906001019060200180831161139557829003601f168201915b50505050508152602001600282015481526020016003820180546113d590612732565b80601f016020809104026020016040519081016040528092919081815260200182805461140190612732565b801561144e5780601f106114235761010080835404028352916020019161144e565b820191906000526020600020905b81548152906001019060200180831161143157829003601f168201915b5050505050815260200160048201805461146790612732565b80601f016020809104026020016040519081016040528092919081815260200182805461149390612732565b80156114e05780601f106114b5576101008083540402835291602001916114e0565b820191906000526020600020905b8154815290600101906020018083116114c357829003601f168201915b505050505081526020016005820180546114f990612732565b80601f016020809104026020016040519081016040528092919081815260200182805461152590612732565b80156115725780601f1061154757610100808354040283529160200191611572565b820191906000526020600020905b81548152906001019060200180831161155557829003601f168201915b5050505050815260200160068201548152602001600782015481525050815250508282815181106115a6576115a56126d4565b5b6020026020010181905250808060010191505061120d565b50809250505090565b600581815481106115d757600080fd5b9060005260206000200160009150905080546115f290612732565b80601f016020809104026020016040519081016040528092919081815260200182805461161e90612732565b801561166b5780601f106116405761010080835404028352916020019161166b565b820191906000526020600020905b81548152906001019060200180831161164e57829003601f168201915b505050505081565b600160009054906101000a900473ffffffffffffffffffffffffffffffffffffffff1673ffffffffffffffffffffffffffffffffffffffff163373ffffffffffffffffffffffffffffffffffffffff1614611703576040517f08c379a00000000000000000000000000000000000000000000000000000000081526004016116fa90612c6f565b60405180910390fd5b6000600282604051611715919061284e565b90815260200160405180910390206007015411611767576040517f08c379a000000000000000000000000000000000000000000000000000000000815260040161175e90612d55565b60405180910390fd5b6001600282604051611779919061284e565b908152602001604051809103902060070160008282546117999190612bb1565b9250508190555050565b600160009054906101000a900473ffffffffffffffffffffffffffffffffffffffff1673ffffffffffffffffffffffffffffffffffffffff163373ffffffffffffffffffffffffffffffffffffffff1614611833576040517f08c379a000000000000000000000000000000000000000000000000000000000815260040161182a90612c6f565b60405180910390fd5b60006040518061010001604052808a81526020018981526020018881526020018781526020018681526020018581526020018481526020018381525090508060028a604051611882919061284e565b908152602001604051809103902060008201518160000190816118a59190612adf565b5060208201518160010190816118bb9190612adf565b506040820151816002015560608201518160030190816118db9190612adf565b5060808201518160040190816118f19190612adf565b5060a08201518160050190816119079190612adf565b5060c0820151816006015560e082015181600701559050506005899080600181540180825580915050600190039060005260206000200160009091909190915090816119539190612adf565b507ffdbe2a012c10ec01592653978eaa09b5ca60b143a0e617505b2ebcbd911ec5b888888460405161198793929190612d75565b60405180910390a1505050505050505050565b6002818051602081018201805184825260208301602085012081835280955050505050506000915090508060000180546119d390612732565b80601f01602080910402602001604051908101604052809291908181526020018280546119ff90612732565b8015611a4c5780601f10611a2157610100808354040283529160200191611a4c565b820191906000526020600020905b815481529060010190602001808311611a2f57829003601f168201915b505050505090806001018054611a6190612732565b80601f0160208091040260200160405190810160405280929190818152602001828054611a8d90612732565b8015611ada5780601f10611aaf57610100808354040283529160200191611ada565b820191906000526020600020905b815481529060010190602001808311611abd57829003601f168201915b505050505090806002015490806003018054611af590612732565b80601f0160208091040260200160405190810160405280929190818152602001828054611b2190612732565b8015611b6e5780601f10611b4357610100808354040283529160200191611b6e565b820191906000526020600020905b815481529060010190602001808311611b5157829003601f168201915b505050505090806004018054611b8390612732565b80601f0160208091040260200160405190810160405280929190818152602001828054611baf90612732565b8015611bfc5780601f10611bd157610100808354040283529160200191611bfc565b820191906000526020600020905b815481529060010190602001808311611bdf57829003601f168201915b505050505090806005018054611c1190612732565b80601f0160208091040260200160405190810160405280929190818152602001828054611c3d90612732565b8015611c8a5780601f10611c5f57610100808354040283529160200191611c8a565b820191906000526020600020905b815481529060010190602001808311611c6d57829003601f168201915b5050505050908060060154908060070154905088565b60405180610100016040528060608152602001606081526020016000815260200160608152602001606081526020016060815260200160008152602001600081525090565b604051806040016040528060008152602001611cff611ca0565b81525090565b600081519050919050565b600082825260208201905092915050565b6000819050602082019050919050565b600081519050919050565b600082825260208201905092915050565b60005b83811015611d6b578082015181840152602081019050611d50565b60008484015250505050565b6000601f19601f8301169050919050565b6000611d9382611d31565b611d9d8185611d3c565b9350611dad818560208601611d4d565b611db681611d77565b840191505092915050565b6000819050919050565b611dd481611dc1565b82525050565b6000610100830160008301518482036000860152611df88282611d88565b91505060208301518482036020860152611e128282611d88565b9150506040830151611e276040860182611dcb565b5060608301518482036060860152611e3f8282611d88565b91505060808301518482036080860152611e598282611d88565b91505060a083015184820360a0860152611e738282611d88565b91505060c0830151611e8860c0860182611dcb565b5060e0830151611e9b60e0860182611dcb565b508091505092915050565b6000611eb28383611dda565b905092915050565b6000602082019050919050565b6000611ed282611d05565b611edc8185611d10565b935083602082028501611eee85611d21565b8060005b85811015611f2a5784840389528151611f0b8582611ea6565b9450611f1683611eba565b925060208a01995050600181019050611ef2565b50829750879550505050505092915050565b60006020820190508181036000830152611f568184611ec7565b905092915050565b600082825260208201905092915050565b6000611f7a82611d31565b611f848185611f5e565b9350611f94818560208601611d4d565b611f9d81611d77565b840191505092915050565b60006020820190508181036000830152611fc28184611f6f565b905092915050565b6000604051905090565b600080fd5b600080fd5b600080fd5b600080fd5b7f4e487b7100000000000000000000000000000000000000000000000000000000600052604160045260246000fd5b61202082611d77565b810181811067ffffffffffffffff8211171561203f5761203e611fe8565b5b80604052505050565b6000612052611fca565b905061205e8282612017565b919050565b600067ffffffffffffffff82111561207e5761207d611fe8565b5b61208782611d77565b9050602081019050919050565b82818337600083830152505050565b60006120b66120b184612063565b612048565b9050828152602081018484840111156120d2576120d1611fe3565b5b6120dd848285612094565b509392505050565b600082601f8301126120fa576120f9611fde565b5b813561210a8482602086016120a3565b91505092915050565b60006020828403121561212957612128611fd4565b5b600082013567ffffffffffffffff81111561214757612146611fd9565b5b612153848285016120e5565b91505092915050565b600073ffffffffffffffffffffffffffffffffffffffff82169050919050565b60006121878261215c565b9050919050565b6121978161217c565b81146121a257600080fd5b50565b6000813590506121b48161218e565b92915050565b6000602082840312156121d0576121cf611fd4565b5b60006121de848285016121a5565b91505092915050565b6121f081611dc1565b82525050565b600060208201905061220b60008301846121e7565b92915050565b61221a8161217c565b82525050565b60006020820190506122356000830184612211565b92915050565b61224481611dc1565b811461224f57600080fd5b50565b6000813590506122618161223b565b92915050565b6000806040838503121561227e5761227d611fd4565b5b600061228c858286016121a5565b925050602061229d85828601612252565b9150509250929050565b60006101008301600083015184820360008601526122c58282611d88565b915050602083015184820360208601526122df8282611d88565b91505060408301516122f46040860182611dcb565b506060830151848203606086015261230c8282611d88565b915050608083015184820360808601526123268282611d88565b91505060a083015184820360a08601526123408282611d88565b91505060c083015161235560c0860182611dcb565b5060e083015161236860e0860182611dcb565b508091505092915050565b600060408201905061238860008301856121e7565b818103602083015261239a81846122a7565b90509392505050565b600081519050919050565b600082825260208201905092915050565b6000819050602082019050919050565b60006040830160008301516123e76000860182611dcb565b50602083015184820360208601526123ff8282611dda565b9150508091505092915050565b600061241883836123cf565b905092915050565b6000602082019050919050565b6000612438826123a3565b61244281856123ae565b935083602082028501612454856123bf565b8060005b858110156124905784840389528151612471858261240c565b945061247c83612420565b925060208a01995050600181019050612458565b50829750879550505050505092915050565b600060208201905081810360008301526124bc818461242d565b905092915050565b6000602082840312156124da576124d9611fd4565b5b60006124e884828501612252565b91505092915050565b600080600080600080600080610100898b03121561251257612511611fd4565b5b600089013567ffffffffffffffff8111156125305761252f611fd9565b5b61253c8b828c016120e5565b985050602089013567ffffffffffffffff81111561255d5761255c611fd9565b5b6125698b828c016120e5565b975050604061257a8b828c01612252565b965050606089013567ffffffffffffffff81111561259b5761259a611fd9565b5b6125a78b828c016120e5565b955050608089013567ffffffffffffffff8111156125c8576125c7611fd9565b5b6125d48b828c016120e5565b94505060a089013567ffffffffffffffff8111156125f5576125f4611fd9565b5b6126018b828c016120e5565b93505060c06126128b828c01612252565b92505060e06126238b828c01612252565b9150509295985092959890939650565b600061010082019050818103600083015261264e818b611f6f565b90508181036020830152612662818a611f6f565b905061267160408301896121e7565b81810360608301526126838188611f6f565b905081810360808301526126978187611f6f565b905081810360a08301526126ab8186611f6f565b90506126ba60c08301856121e7565b6126c760e08301846121e7565b9998505050505050505050565b7f4e487b7100000000000000000000000000000000000000000000000000000000600052603260045260246000fd5b7f4e487b7100000000000000000000000000000000000000000000000000000000600052602260045260246000fd5b6000600282049050600182168061274a57607f821691505b60208210810361275d5761275c612703565b5b50919050565b600081905092915050565b60008190508160005260206000209050919050565b6000815461279081612732565b61279a8186612763565b945060018216600081146127b557600181146127ca576127fd565b60ff19831686528115158202860193506127fd565b6127d38561276e565b60005b838110156127f5578154818901526001820191506020810190506127d6565b838801955050505b50505092915050565b60006128128284612783565b915081905092915050565b600061282882611d31565b6128328185612763565b9350612842818560208601611d4d565b80840191505092915050565b600061285a828461281d565b915081905092915050565b7f706c7a2070617920657861637420707269636500000000000000000000000000600082015250565b600061289b601383611f5e565b91506128a682612865565b602082019050919050565b600060208201905081810360008301526128ca8161288e565b9050919050565b7f4e487b7100000000000000000000000000000000000000000000000000000000600052601160045260246000fd5b600061290b82611dc1565b91507fffffffffffffffffffffffffffffffffffffffffffffffffffffffffffffffff820361293d5761293c6128d1565b5b600182019050919050565b60006020601f8301049050919050565b600082821b905092915050565b6000600883026129957fffffffffffffffffffffffffffffffffffffffffffffffffffffffffffffffff82612958565b61299f8683612958565b95508019841693508086168417925050509392505050565b6000819050919050565b60006129dc6129d76129d284611dc1565b6129b7565b611dc1565b9050919050565b6000819050919050565b6129f6836129c1565b612a0a612a02826129e3565b848454612965565b825550505050565b600090565b612a1f612a12565b612a2a8184846129ed565b505050565b5b81811015612a4e57612a43600082612a17565b600181019050612a30565b5050565b601f821115612a9357612a648161276e565b612a6d84612948565b81016020851015612a7c578190505b612a90612a8885612948565b830182612a2f565b50505b505050565b600082821c905092915050565b6000612ab660001984600802612a98565b1980831691505092915050565b6000612acf8383612aa5565b9150826002028217905092915050565b612ae882611d31565b67ffffffffffffffff811115612b0157612b00611fe8565b5b612b0b8254612732565b612b16828285612a52565b600060209050601f831160018114612b495760008415612b37578287015190505b612b418582612ac3565b865550612ba9565b601f198416612b578661276e565b60005b82811015612b7f57848901518255600182019150602085019450602081019050612b5a565b86831015612b9c5784890151612b98601f891682612aa5565b8355505b6001600288020188555050505b505050505050565b6000612bbc82611dc1565b9150612bc783611dc1565b9250828203905081811115612bdf57612bde6128d1565b5b92915050565b6000606082019050612bfa6000830186612211565b8181036020830152612c0c8185611f6f565b9050612c1b60408301846121e7565b949350505050565b7f4f6e6c79206f776e65722063616e206c697374207468652070726f6475637473600082015250565b6000612c59602083611f5e565b9150612c6482612c23565b602082019050919050565b60006020820190508181036000830152612c8881612c4c565b9050919050565b600081905092915050565b50565b6000612caa600083612c8f565b9150612cb582612c9a565b600082019050919050565b6000612ccb82612c9d565b9150819050919050565b6000612ce082611dc1565b9150612ceb83611dc1565b9250828201905080821115612d0357612d026128d1565b5b92915050565b7f53746f636b206d7573742062652067726561746572207468616e207a65726f00600082015250565b6000612d3f601f83611f5e565b9150612d4a82612d09565b602082019050919050565b60006020820190508181036000830152612d6e81612d32565b9050919050565b60006060820190508181036000830152612d8f8186611f6f565b9050612d9e60208301856121e7565b612dab60408301846121e7565b94935050505056fea264697066735822122026d8fbf7178949673b038c31161328a4b88501057a0fbe9cd796b47b639671be64736f6c634300081b0033",
  "linkReferences": {},
  "deployedLinkReferences": {}
}