{
  "_format": "hh-sol-artifact-1",
  "contractName": "Ecommerce",
  "sourceName": "contracts/Ecom.sol",
  "abi": [
    {
      "inputs": [],
      "stateMutability": "nonpayable",
      "type": "constructor"
    },
    {
      "anonymous": false,
      "inputs": [
        {
          "indexed": false,
          "internalType": "address",
          "name": "buyer",
          "type": "address"
        },
        {
          "indexed": false,
          "internalType": "string",
          "name": "Id",
          "type": "string"
        },
        {
          "indexed": false,
          "internalType": "uint256",
          "name": "time",
          "type": "uint256"
        }
      ],
      "name": "Buy",
      "type": "event"
    },
    {
      "anonymous": false,
      "inputs": [
        {
          "indexed": false,
          "internalType": "string",
          "name": "name",
          "type": "string"
        },
        {
          "indexed": false,
          "internalType": "uint256",
          "name": "price",
          "type": "uint256"
        },
        {
          "indexed": false,
          "internalType": "uint256",
          "name": "quantity",
          "type": "uint256"
        }
      ],
      "name": "List",
      "type": "event"
    },
    {
      "inputs": [
        {
          "internalType": "address",
          "name": "",
          "type": "address"
        },
        {
          "internalType": "uint256",
          "name": "",
          "type": "uint256"
        }
      ],
      "name": "Orders",
      "outputs": [
        {
          "internalType": "uint256",
          "name": "timestamp",
          "type": "uint256"
        },
        {
          "components": [
            {
              "internalType": "string",
              "name": "id",
              "type": "string"
            },
            {
              "internalType": "string",
              "name": "name",
              "type": "string"
            },
            {
              "internalType": "uint256",
              "name": "price",
              "type": "uint256"
            },
            {
              "internalType": "string",
              "name": "description",
              "type": "string"
            },
            {
              "internalType": "string",
              "name": "category",
              "type": "string"
            },
            {
              "internalType": "string",
              "name": "image",
              "type": "string"
            },
            {
              "internalType": "uint256",
              "name": "ratings",
              "type": "uint256"
            },
            {
              "internalType": "uint256",
              "name": "stocks",
              "type": "uint256"
            }
          ],
          "internalType": "struct Ecommerce.products",
          "name": "item",
          "type": "tuple"
        }
      ],
      "stateMutability": "view",
      "type": "function"
    },
    {
      "inputs": [
        {
          "internalType": "string",
          "name": "",
          "type": "string"
        }
      ],
      "name": "allItems",
      "outputs": [
        {
          "internalType": "string",
          "name": "id",
          "type": "string"
        },
        {
          "internalType": "string",
          "name": "name",
          "type": "string"
        },
        {
          "internalType": "uint256",
          "name": "price",
          "type": "uint256"
        },
        {
          "internalType": "string",
          "name": "description",
          "type": "string"
        },
        {
          "internalType": "string",
          "name": "category",
          "type": "string"
        },
        {
          "internalType": "string",
          "name": "image",
          "type": "string"
        },
        {
          "internalType": "uint256",
          "name": "ratings",
          "type": "uint256"
        },
        {
          "internalType": "uint256",
          "name": "stocks",
          "type": "uint256"
        }
      ],
      "stateMutability": "view",
      "type": "function"
    },
    {
      "inputs": [
        {
          "internalType": "string",
          "name": "_id",
          "type": "string"
        }
      ],
      "name": "buyProduct",
      "outputs": [],
      "stateMutability": "payable",
      "type": "function"
    },
    {
      "inputs": [],
      "name": "getAllProducts",
      "outputs": [
        {
          "components": [
            {
              "internalType": "string",
              "name": "id",
              "type": "string"
            },
            {
              "internalType": "string",
              "name": "name",
              "type": "string"
            },
            {
              "internalType": "uint256",
              "name": "price",
              "type": "uint256"
            },
            {
              "internalType": "string",
              "name": "description",
              "type": "string"
            },
            {
              "internalType": "string",
              "name": "category",
              "type": "string"
            },
            {
              "internalType": "string",
              "name": "image",
              "type": "string"
            },
            {
              "internalType": "uint256",
              "name": "ratings",
              "type": "uint256"
            },
            {
              "internalType": "uint256",
              "name": "stocks",
              "type": "uint256"
            }
          ],
          "internalType": "struct Ecommerce.products[]",
          "name": "",
          "type": "tuple[]"
        }
      ],
      "stateMutability": "view",
      "type": "function"
    },
    {
      "inputs": [],
      "name": "getProductCount",
      "outputs": [
        {
          "internalType": "uint256",
          "name": "",
          "type": "uint256"
        }
      ],
      "stateMutability": "view",
      "type": "function"
    },
    {
      "inputs": [
        {
          "internalType": "string",
          "name": "_id",
          "type": "string"
        },
        {
          "internalType": "string",
          "name": "_name",
          "type": "string"
        },
        {
          "internalType": "uint256",
          "name": "_price",
          "type": "uint256"
        },
        {
          "internalType": "string",
          "name": "_description",
          "type": "string"
        },
        {
          "internalType": "string",
          "name": "_category",
          "type": "string"
        },
        {
          "internalType": "string",
          "name": "_image",
          "type": "string"
        },
        {
          "internalType": "uint256",
          "name": "_ratings",
          "type": "uint256"
        },
        {
          "internalType": "uint256",
          "name": "_stocks",
          "type": "uint256"
        }
      ],
      "name": "listProducts",
      "outputs": [],
      "stateMutability": "nonpayable",
      "type": "function"
    },
    {
      "inputs": [],
      "name": "name",
      "outputs": [
        {
          "internalType": "string",
          "name": "",
          "type": "string"
        }
      ],
      "stateMutability": "view",
      "type": "function"
    },
    {
      "inputs": [
        {
          "internalType": "address",
          "name": "",
          "type": "address"
        }
      ],
      "name": "orderCount",
      "outputs": [
        {
          "internalType": "uint256",
          "name": "",
          "type": "uint256"
        }
      ],
      "stateMutability": "view",
      "type": "function"
    },
    {
      "inputs": [],
      "name": "owner",
      "outputs": [
        {
          "internalType": "address",
          "name": "",
          "type": "address"
        }
      ],
      "stateMutability": "view",
      "type": "function"
    },
    {
      "inputs": [
        {
          "internalType": "uint256",
          "name": "",
          "type": "uint256"
        }
      ],
      "name": "productIds",
      "outputs": [
        {
          "internalType": "string",
          "name": "",
          "type": "string"
        }
      ],
      "stateMutability": "view",
      "type": "function"
    },
    {
      "inputs": [],
      "name": "withdraw",
      "outputs": [],
      "stateMutability": "nonpayable",
      "type": "function"
    }
  ],
  "bytecode": "0x608060405234801561001057600080fd5b506040518060400160405280601781526020017f446563656e7472616c697a65642045636f6d6d657263650000000000000000008152506000908161005591906102ec565b5033600160006101000a81548173ffffffffffffffffffffffffffffffffffffffff021916908373ffffffffffffffffffffffffffffffffffffffff1602179055506103be565b600081519050919050565b7f4e487b7100000000000000000000000000000000000000000000000000000000600052604160045260246000fd5b7f4e487b7100000000000000000000000000000000000000000000000000000000600052602260045260246000fd5b6000600282049050600182168061011d57607f821691505b6020821081036101305761012f6100d6565b5b50919050565b60008190508160005260206000209050919050565b60006020601f8301049050919050565b600082821b905092915050565b6000600883026101987fffffffffffffffffffffffffffffffffffffffffffffffffffffffffffffffff8261015b565b6101a2868361015b565b95508019841693508086168417925050509392505050565b6000819050919050565b6000819050919050565b60006101e96101e46101df846101ba565b6101c4565b6101ba565b9050919050565b6000819050919050565b610203836101ce565b61021761020f826101f0565b848454610168565b825550505050565b600090565b61022c61021f565b6102378184846101fa565b505050565b5b8181101561025b57610250600082610224565b60018101905061023d565b5050565b601f8211156102a05761027181610136565b61027a8461014b565b81016020851015610289578190505b61029d6102958561014b565b83018261023c565b50505b505050565b600082821c905092915050565b60006102c3600019846008026102a5565b1980831691505092915050565b60006102dc83836102b2565b9150826002028217905092915050565b6102f58261009c565b67ffffffffffffffff81111561030e5761030d6100a7565b5b6103188254610105565b61032382828561025f565b600060209050601f8311600181146103565760008415610344578287015190505b61034e85826102d0565b8655506103b6565b601f19841661036486610136565b60005b8281101561038c57848901518255600182019150602085019450602081019050610367565b868310156103a957848901516103a5601f8916826102b2565b8355505b6001600288020188555050505b505050505050565b612656806103cd6000396000f3fe60806040526004361061009c5760003560e01c8063713d856b11610064578063713d856b146101555780638da5cb5b14610192578063ad668950146101bd578063cb51bba9146101fb578063d95d224514610238578063e339a669146102615761009c565b806302ee3a52146100a157806306fdde03146100cc578063364e022f146100f75780633ccfd60b146101135780634a348da91461012a575b600080fd5b3480156100ad57600080fd5b506100b66102a5565b6040516100c3919061196a565b60405180910390f35b3480156100d857600080fd5b506100e1610686565b6040516100ee91906119d6565b60405180910390f35b610111600480360381019061010c9190611b41565b610714565b005b34801561011f57600080fd5b50610128610c9b565b005b34801561013657600080fd5b5061013f610dc6565b60405161014c9190611b99565b60405180910390f35b34801561016157600080fd5b5061017c60048036038101906101779190611c12565b610dd3565b6040516101899190611b99565b60405180910390f35b34801561019e57600080fd5b506101a7610deb565b6040516101b49190611c4e565b60405180910390f35b3480156101c957600080fd5b506101e460048036038101906101df9190611c95565b610e11565b6040516101f2929190611da1565b60405180910390f35b34801561020757600080fd5b50610222600480360381019061021d9190611dd1565b611145565b60405161022f91906119d6565b60405180910390f35b34801561024457600080fd5b5061025f600480360381019061025a9190611dfe565b6111f1565b005b34801561026d57600080fd5b5061028860048036038101906102839190611b41565b6113e8565b60405161029c989796959493929190611f40565b60405180910390f35b6060600060058054905067ffffffffffffffff8111156102c8576102c7611a16565b5b60405190808252806020026020018201604052801561030157816020015b6102ee6116ee565b8152602001906001900390816102e65790505b50905060005b60058054905081101561067e5760026005828154811061032a57610329611fe1565b5b906000526020600020016040516103419190612113565b90815260200160405180910390206040518061010001604052908160008201805461036b9061203f565b80601f01602080910402602001604051908101604052809291908181526020018280546103979061203f565b80156103e45780601f106103b9576101008083540402835291602001916103e4565b820191906000526020600020905b8154815290600101906020018083116103c757829003601f168201915b505050505081526020016001820180546103fd9061203f565b80601f01602080910402602001604051908101604052809291908181526020018280546104299061203f565b80156104765780601f1061044b57610100808354040283529160200191610476565b820191906000526020600020905b81548152906001019060200180831161045957829003601f168201915b50505050508152602001600282015481526020016003820180546104999061203f565b80601f01602080910402602001604051908101604052809291908181526020018280546104c59061203f565b80156105125780601f106104e757610100808354040283529160200191610512565b820191906000526020600020905b8154815290600101906020018083116104f557829003601f168201915b5050505050815260200160048201805461052b9061203f565b80601f01602080910402602001604051908101604052809291908181526020018280546105579061203f565b80156105a45780601f10610579576101008083540402835291602001916105a4565b820191906000526020600020905b81548152906001019060200180831161058757829003601f168201915b505050505081526020016005820180546105bd9061203f565b80601f01602080910402602001604051908101604052809291908181526020018280546105e99061203f565b80156106365780601f1061060b57610100808354040283529160200191610636565b820191906000526020600020905b81548152906001019060200180831161061957829003601f168201915b505050505081526020016006820154815260200160078201548152505082828151811061066657610665611fe1565b5b60200260200101819052508080600101915050610307565b508091505090565b600080546106939061203f565b80601f01602080910402602001604051908101604052809291908181526020018280546106bf9061203f565b801561070c5780601f106106e15761010080835404028352916020019161070c565b820191906000526020600020905b8154815290600101906020018083116106ef57829003601f168201915b505050505081565b6000600282604051610726919061215b565b9081526020016040518091039020604051806101000160405290816000820180546107509061203f565b80601f016020809104026020016040519081016040528092919081815260200182805461077c9061203f565b80156107c95780601f1061079e576101008083540402835291602001916107c9565b820191906000526020600020905b8154815290600101906020018083116107ac57829003601f168201915b505050505081526020016001820180546107e29061203f565b80601f016020809104026020016040519081016040528092919081815260200182805461080e9061203f565b801561085b5780601f106108305761010080835404028352916020019161085b565b820191906000526020600020905b81548152906001019060200180831161083e57829003601f168201915b505050505081526020016002820154815260200160038201805461087e9061203f565b80601f01602080910402602001604051908101604052809291908181526020018280546108aa9061203f565b80156108f75780601f106108cc576101008083540402835291602001916108f7565b820191906000526020600020905b8154815290600101906020018083116108da57829003601f168201915b505050505081526020016004820180546109109061203f565b80601f016020809104026020016040519081016040528092919081815260200182805461093c9061203f565b80156109895780601f1061095e57610100808354040283529160200191610989565b820191906000526020600020905b81548152906001019060200180831161096c57829003601f168201915b505050505081526020016005820180546109a29061203f565b80601f01602080910402602001604051908101604052809291908181526020018280546109ce9061203f565b8015610a1b5780601f106109f057610100808354040283529160200191610a1b565b820191906000526020600020905b8154815290600101906020018083116109fe57829003601f168201915b5050505050815260200160068201548152602001600782015481525050905080604001513414610a80576040517f08c379a0000000000000000000000000000000000000000000000000000000008152600401610a77906121be565b60405180910390fd5b60006040518060400160405280428152602001838152509050600360003373ffffffffffffffffffffffffffffffffffffffff1673ffffffffffffffffffffffffffffffffffffffff1681526020019081526020016000206000815480929190610ae99061220d565b919050555080600460003373ffffffffffffffffffffffffffffffffffffffff1673ffffffffffffffffffffffffffffffffffffffff1681526020019081526020016000206000600360003373ffffffffffffffffffffffffffffffffffffffff1673ffffffffffffffffffffffffffffffffffffffff168152602001908152602001600020548152602001908152602001600020600082015181600001556020820151816001016000820151816000019081610ba691906123ec565b506020820151816001019081610bbc91906123ec565b50604082015181600201556060820151816003019081610bdc91906123ec565b506080820151816004019081610bf291906123ec565b5060a0820151816005019081610c0891906123ec565b5060c0820151816006015560e0820151816007015550509050506001600284604051610c34919061215b565b90815260200160405180910390206007016000828254610c5491906124be565b925050819055507f1160f7e42acc25ce40a0499151736a0092c23685ef042576f568bd2435a11a36338442604051610c8e939291906124f2565b60405180910390a1505050565b600160009054906101000a900473ffffffffffffffffffffffffffffffffffffffff1673ffffffffffffffffffffffffffffffffffffffff163373ffffffffffffffffffffffffffffffffffffffff1614610d2b576040517f08c379a0000000000000000000000000000000000000000000000000000000008152600401610d229061257c565b60405180910390fd5b6000600160009054906101000a900473ffffffffffffffffffffffffffffffffffffffff1673ffffffffffffffffffffffffffffffffffffffff1647604051610d73906125cd565b60006040518083038185875af1925050503d8060008114610db0576040519150601f19603f3d011682016040523d82523d6000602084013e610db5565b606091505b5050905080610dc357600080fd5b50565b6000600580549050905090565b60036020528060005260406000206000915090505481565b600160009054906101000a900473ffffffffffffffffffffffffffffffffffffffff1681565b6004602052816000526040600020602052806000526040600020600091509150508060000154908060010160405180610100016040529081600082018054610e589061203f565b80601f0160208091040260200160405190810160405280929190818152602001828054610e849061203f565b8015610ed15780601f10610ea657610100808354040283529160200191610ed1565b820191906000526020600020905b815481529060010190602001808311610eb457829003601f168201915b50505050508152602001600182018054610eea9061203f565b80601f0160208091040260200160405190810160405280929190818152602001828054610f169061203f565b8015610f635780601f10610f3857610100808354040283529160200191610f63565b820191906000526020600020905b815481529060010190602001808311610f4657829003601f168201915b5050505050815260200160028201548152602001600382018054610f869061203f565b80601f0160208091040260200160405190810160405280929190818152602001828054610fb29061203f565b8015610fff5780601f10610fd457610100808354040283529160200191610fff565b820191906000526020600020905b815481529060010190602001808311610fe257829003601f168201915b505050505081526020016004820180546110189061203f565b80601f01602080910402602001604051908101604052809291908181526020018280546110449061203f565b80156110915780601f1061106657610100808354040283529160200191611091565b820191906000526020600020905b81548152906001019060200180831161107457829003601f168201915b505050505081526020016005820180546110aa9061203f565b80601f01602080910402602001604051908101604052809291908181526020018280546110d69061203f565b80156111235780601f106110f857610100808354040283529160200191611123565b820191906000526020600020905b81548152906001019060200180831161110657829003601f168201915b5050505050815260200160068201548152602001600782015481525050905082565b6005818154811061115557600080fd5b9060005260206000200160009150905080546111709061203f565b80601f016020809104026020016040519081016040528092919081815260200182805461119c9061203f565b80156111e95780601f106111be576101008083540402835291602001916111e9565b820191906000526020600020905b8154815290600101906020018083116111cc57829003601f168201915b505050505081565b600160009054906101000a900473ffffffffffffffffffffffffffffffffffffffff1673ffffffffffffffffffffffffffffffffffffffff163373ffffffffffffffffffffffffffffffffffffffff1614611281576040517f08c379a00000000000000000000000000000000000000000000000000000000081526004016112789061257c565b60405180910390fd5b60006040518061010001604052808a81526020018981526020018881526020018781526020018681526020018581526020018481526020018381525090508060028a6040516112d0919061215b565b908152602001604051809103902060008201518160000190816112f391906123ec565b50602082015181600101908161130991906123ec565b5060408201518160020155606082015181600301908161132991906123ec565b50608082015181600401908161133f91906123ec565b5060a082015181600501908161135591906123ec565b5060c0820151816006015560e082015181600701559050506005899080600181540180825580915050600190039060005260206000200160009091909190915090816113a191906123ec565b507ffdbe2a012c10ec01592653978eaa09b5ca60b143a0e617505b2ebcbd911ec5b88888846040516113d5939291906125e2565b60405180910390a1505050505050505050565b6002818051602081018201805184825260208301602085012081835280955050505050506000915090508060000180546114219061203f565b80601f016020809104026020016040519081016040528092919081815260200182805461144d9061203f565b801561149a5780601f1061146f5761010080835404028352916020019161149a565b820191906000526020600020905b81548152906001019060200180831161147d57829003601f168201915b5050505050908060010180546114af9061203f565b80601f01602080910402602001604051908101604052809291908181526020018280546114db9061203f565b80156115285780601f106114fd57610100808354040283529160200191611528565b820191906000526020600020905b81548152906001019060200180831161150b57829003601f168201915b5050505050908060020154908060030180546115439061203f565b80601f016020809104026020016040519081016040528092919081815260200182805461156f9061203f565b80156115bc5780601f10611591576101008083540402835291602001916115bc565b820191906000526020600020905b81548152906001019060200180831161159f57829003601f168201915b5050505050908060040180546115d19061203f565b80601f01602080910402602001604051908101604052809291908181526020018280546115fd9061203f565b801561164a5780601f1061161f5761010080835404028352916020019161164a565b820191906000526020600020905b81548152906001019060200180831161162d57829003601f168201915b50505050509080600501805461165f9061203f565b80601f016020809104026020016040519081016040528092919081815260200182805461168b9061203f565b80156116d85780601f106116ad576101008083540402835291602001916116d8565b820191906000526020600020905b8154815290600101906020018083116116bb57829003601f168201915b5050505050908060060154908060070154905088565b60405180610100016040528060608152602001606081526020016000815260200160608152602001606081526020016060815260200160008152602001600081525090565b600081519050919050565b600082825260208201905092915050565b6000819050602082019050919050565b600081519050919050565b600082825260208201905092915050565b60005b8381101561179957808201518184015260208101905061177e565b60008484015250505050565b6000601f19601f8301169050919050565b60006117c18261175f565b6117cb818561176a565b93506117db81856020860161177b565b6117e4816117a5565b840191505092915050565b6000819050919050565b611802816117ef565b82525050565b600061010083016000830151848203600086015261182682826117b6565b9150506020830151848203602086015261184082826117b6565b915050604083015161185560408601826117f9565b506060830151848203606086015261186d82826117b6565b9150506080830151848203608086015261188782826117b6565b91505060a083015184820360a08601526118a182826117b6565b91505060c08301516118b660c08601826117f9565b5060e08301516118c960e08601826117f9565b508091505092915050565b60006118e08383611808565b905092915050565b6000602082019050919050565b600061190082611733565b61190a818561173e565b93508360208202850161191c8561174f565b8060005b85811015611958578484038952815161193985826118d4565b9450611944836118e8565b925060208a01995050600181019050611920565b50829750879550505050505092915050565b6000602082019050818103600083015261198481846118f5565b905092915050565b600082825260208201905092915050565b60006119a88261175f565b6119b2818561198c565b93506119c281856020860161177b565b6119cb816117a5565b840191505092915050565b600060208201905081810360008301526119f0818461199d565b905092915050565b6000604051905090565b600080fd5b600080fd5b600080fd5b600080fd5b7f4e487b7100000000000000000000000000000000000000000000000000000000600052604160045260246000fd5b611a4e826117a5565b810181811067ffffffffffffffff82111715611a6d57611a6c611a16565b5b80604052505050565b6000611a806119f8565b9050611a8c8282611a45565b919050565b600067ffffffffffffffff821115611aac57611aab611a16565b5b611ab5826117a5565b9050602081019050919050565b82818337600083830152505050565b6000611ae4611adf84611a91565b611a76565b905082815260208101848484011115611b0057611aff611a11565b5b611b0b848285611ac2565b509392505050565b600082601f830112611b2857611b27611a0c565b5b8135611b38848260208601611ad1565b91505092915050565b600060208284031215611b5757611b56611a02565b5b600082013567ffffffffffffffff811115611b7557611b74611a07565b5b611b8184828501611b13565b91505092915050565b611b93816117ef565b82525050565b6000602082019050611bae6000830184611b8a565b92915050565b600073ffffffffffffffffffffffffffffffffffffffff82169050919050565b6000611bdf82611bb4565b9050919050565b611bef81611bd4565b8114611bfa57600080fd5b50565b600081359050611c0c81611be6565b92915050565b600060208284031215611c2857611c27611a02565b5b6000611c3684828501611bfd565b91505092915050565b611c4881611bd4565b82525050565b6000602082019050611c636000830184611c3f565b92915050565b611c72816117ef565b8114611c7d57600080fd5b50565b600081359050611c8f81611c69565b92915050565b60008060408385031215611cac57611cab611a02565b5b6000611cba85828601611bfd565b9250506020611ccb85828601611c80565b9150509250929050565b6000610100830160008301518482036000860152611cf382826117b6565b91505060208301518482036020860152611d0d82826117b6565b9150506040830151611d2260408601826117f9565b5060608301518482036060860152611d3a82826117b6565b91505060808301518482036080860152611d5482826117b6565b91505060a083015184820360a0860152611d6e82826117b6565b91505060c0830151611d8360c08601826117f9565b5060e0830151611d9660e08601826117f9565b508091505092915050565b6000604082019050611db66000830185611b8a565b8181036020830152611dc88184611cd5565b90509392505050565b600060208284031215611de757611de6611a02565b5b6000611df584828501611c80565b91505092915050565b600080600080600080600080610100898b031215611e1f57611e1e611a02565b5b600089013567ffffffffffffffff811115611e3d57611e3c611a07565b5b611e498b828c01611b13565b985050602089013567ffffffffffffffff811115611e6a57611e69611a07565b5b611e768b828c01611b13565b9750506040611e878b828c01611c80565b965050606089013567ffffffffffffffff811115611ea857611ea7611a07565b5b611eb48b828c01611b13565b955050608089013567ffffffffffffffff811115611ed557611ed4611a07565b5b611ee18b828c01611b13565b94505060a089013567ffffffffffffffff811115611f0257611f01611a07565b5b611f0e8b828c01611b13565b93505060c0611f1f8b828c01611c80565b92505060e0611f308b828c01611c80565b9150509295985092959890939650565b6000610100820190508181036000830152611f5b818b61199d565b90508181036020830152611f6f818a61199d565b9050611f7e6040830189611b8a565b8181036060830152611f90818861199d565b90508181036080830152611fa4818761199d565b905081810360a0830152611fb8818661199d565b9050611fc760c0830185611b8a565b611fd460e0830184611b8a565b9998505050505050505050565b7f4e487b7100000000000000000000000000000000000000000000000000000000600052603260045260246000fd5b7f4e487b7100000000000000000000000000000000000000000000000000000000600052602260045260246000fd5b6000600282049050600182168061205757607f821691505b60208210810361206a57612069612010565b5b50919050565b600081905092915050565b60008190508160005260206000209050919050565b6000815461209d8161203f565b6120a78186612070565b945060018216600081146120c257600181146120d75761210a565b60ff198316865281151582028601935061210a565b6120e08561207b565b60005b83811015612102578154818901526001820191506020810190506120e3565b838801955050505b50505092915050565b600061211f8284612090565b915081905092915050565b60006121358261175f565b61213f8185612070565b935061214f81856020860161177b565b80840191505092915050565b6000612167828461212a565b915081905092915050565b7f706c7a2070617920657861637420707269636500000000000000000000000000600082015250565b60006121a860138361198c565b91506121b382612172565b602082019050919050565b600060208201905081810360008301526121d78161219b565b9050919050565b7f4e487b7100000000000000000000000000000000000000000000000000000000600052601160045260246000fd5b6000612218826117ef565b91507fffffffffffffffffffffffffffffffffffffffffffffffffffffffffffffffff820361224a576122496121de565b5b600182019050919050565b60006020601f8301049050919050565b600082821b905092915050565b6000600883026122a27fffffffffffffffffffffffffffffffffffffffffffffffffffffffffffffffff82612265565b6122ac8683612265565b95508019841693508086168417925050509392505050565b6000819050919050565b60006122e96122e46122df846117ef565b6122c4565b6117ef565b9050919050565b6000819050919050565b612303836122ce565b61231761230f826122f0565b848454612272565b825550505050565b600090565b61232c61231f565b6123378184846122fa565b505050565b5b8181101561235b57612350600082612324565b60018101905061233d565b5050565b601f8211156123a0576123718161207b565b61237a84612255565b81016020851015612389578190505b61239d61239585612255565b83018261233c565b50505b505050565b600082821c905092915050565b60006123c3600019846008026123a5565b1980831691505092915050565b60006123dc83836123b2565b9150826002028217905092915050565b6123f58261175f565b67ffffffffffffffff81111561240e5761240d611a16565b5b612418825461203f565b61242382828561235f565b600060209050601f8311600181146124565760008415612444578287015190505b61244e85826123d0565b8655506124b6565b601f1984166124648661207b565b60005b8281101561248c57848901518255600182019150602085019450602081019050612467565b868310156124a957848901516124a5601f8916826123b2565b8355505b6001600288020188555050505b505050505050565b60006124c9826117ef565b91506124d4836117ef565b92508282039050818111156124ec576124eb6121de565b5b92915050565b60006060820190506125076000830186611c3f565b8181036020830152612519818561199d565b90506125286040830184611b8a565b949350505050565b7f4f6e6c79206f776e65722063616e206c697374207468652070726f6475637473600082015250565b600061256660208361198c565b915061257182612530565b602082019050919050565b6000602082019050818103600083015261259581612559565b9050919050565b600081905092915050565b50565b60006125b760008361259c565b91506125c2826125a7565b600082019050919050565b60006125d8826125aa565b9150819050919050565b600060608201905081810360008301526125fc818661199d565b905061260b6020830185611b8a565b6126186040830184611b8a565b94935050505056fea26469706673582212202fc8dfc2aa0e2017534fcefaf46121822916fff899492687dc96245fbfbaf03064736f6c634300081b0033",
  "linkReferences": {},
  "deployedLinkReferences": {}
}