{
  "_format": "hh-sol-artifact-1",
  "contractName": "Ecommerce",
  "sourceName": "contracts/Ecom.sol",
  "abi": [
    {
      "inputs": [],
      "stateMutability": "nonpayable",
      "type": "constructor"
    },
    {
      "anonymous": false,
      "inputs": [
        {
          "indexed": false,
          "internalType": "address",
          "name": "buyer",
          "type": "address"
        },
        {
          "indexed": false,
          "internalType": "uint256",
          "name": "Id",
          "type": "uint256"
        },
        {
          "indexed": false,
          "internalType": "uint256",
          "name": "time",
          "type": "uint256"
        }
      ],
      "name": "Buy",
      "type": "event"
    },
    {
      "anonymous": false,
      "inputs": [
        {
          "indexed": false,
          "internalType": "string",
          "name": "name",
          "type": "string"
        },
        {
          "indexed": false,
          "internalType": "uint256",
          "name": "price",
          "type": "uint256"
        },
        {
          "indexed": false,
          "internalType": "uint256",
          "name": "quantity",
          "type": "uint256"
        }
      ],
      "name": "List",
      "type": "event"
    },
    {
      "inputs": [
        {
          "internalType": "address",
          "name": "",
          "type": "address"
        },
        {
          "internalType": "uint256",
          "name": "",
          "type": "uint256"
        }
      ],
      "name": "Orders",
      "outputs": [
        {
          "internalType": "uint256",
          "name": "timestamp",
          "type": "uint256"
        },
        {
          "components": [
            {
              "internalType": "uint256",
              "name": "id",
              "type": "uint256"
            },
            {
              "internalType": "string",
              "name": "name",
              "type": "string"
            },
            {
              "internalType": "uint256",
              "name": "price",
              "type": "uint256"
            },
            {
              "internalType": "string",
              "name": "description",
              "type": "string"
            },
            {
              "internalType": "string",
              "name": "category",
              "type": "string"
            },
            {
              "internalType": "string",
              "name": "image",
              "type": "string"
            },
            {
              "internalType": "uint256",
              "name": "ratings",
              "type": "uint256"
            },
            {
              "internalType": "uint256",
              "name": "stocks",
              "type": "uint256"
            }
          ],
          "internalType": "struct Ecommerce.products",
          "name": "item",
          "type": "tuple"
        }
      ],
      "stateMutability": "view",
      "type": "function"
    },
    {
      "inputs": [
        {
          "internalType": "uint256",
          "name": "",
          "type": "uint256"
        }
      ],
      "name": "allItems",
      "outputs": [
        {
          "internalType": "uint256",
          "name": "id",
          "type": "uint256"
        },
        {
          "internalType": "string",
          "name": "name",
          "type": "string"
        },
        {
          "internalType": "uint256",
          "name": "price",
          "type": "uint256"
        },
        {
          "internalType": "string",
          "name": "description",
          "type": "string"
        },
        {
          "internalType": "string",
          "name": "category",
          "type": "string"
        },
        {
          "internalType": "string",
          "name": "image",
          "type": "string"
        },
        {
          "internalType": "uint256",
          "name": "ratings",
          "type": "uint256"
        },
        {
          "internalType": "uint256",
          "name": "stocks",
          "type": "uint256"
        }
      ],
      "stateMutability": "view",
      "type": "function"
    },
    {
      "inputs": [
        {
          "internalType": "uint256",
          "name": "_id",
          "type": "uint256"
        }
      ],
      "name": "buyProduct",
      "outputs": [],
      "stateMutability": "payable",
      "type": "function"
    },
    {
      "inputs": [
        {
          "internalType": "uint256",
          "name": "_id",
          "type": "uint256"
        },
        {
          "internalType": "string",
          "name": "_name",
          "type": "string"
        },
        {
          "internalType": "uint256",
          "name": "_price",
          "type": "uint256"
        },
        {
          "internalType": "string",
          "name": "_description",
          "type": "string"
        },
        {
          "internalType": "string",
          "name": "_category",
          "type": "string"
        },
        {
          "internalType": "string",
          "name": "_image",
          "type": "string"
        },
        {
          "internalType": "uint256",
          "name": "_ratings",
          "type": "uint256"
        },
        {
          "internalType": "uint256",
          "name": "_stocks",
          "type": "uint256"
        }
      ],
      "name": "listProducts",
      "outputs": [],
      "stateMutability": "nonpayable",
      "type": "function"
    },
    {
      "inputs": [],
      "name": "name",
      "outputs": [
        {
          "internalType": "string",
          "name": "",
          "type": "string"
        }
      ],
      "stateMutability": "view",
      "type": "function"
    },
    {
      "inputs": [
        {
          "internalType": "address",
          "name": "",
          "type": "address"
        }
      ],
      "name": "orderCount",
      "outputs": [
        {
          "internalType": "uint256",
          "name": "",
          "type": "uint256"
        }
      ],
      "stateMutability": "view",
      "type": "function"
    },
    {
      "inputs": [],
      "name": "owner",
      "outputs": [
        {
          "internalType": "address",
          "name": "",
          "type": "address"
        }
      ],
      "stateMutability": "view",
      "type": "function"
    },
    {
      "inputs": [],
      "name": "withdraw",
      "outputs": [],
      "stateMutability": "nonpayable",
      "type": "function"
    }
  ],
  "bytecode": "0x608060405234801561001057600080fd5b506040518060400160405280601781526020017f446563656e7472616c697a65642045636f6d6d657263650000000000000000008152506000908161005591906102ec565b5033600160006101000a81548173ffffffffffffffffffffffffffffffffffffffff021916908373ffffffffffffffffffffffffffffffffffffffff1602179055506103be565b600081519050919050565b7f4e487b7100000000000000000000000000000000000000000000000000000000600052604160045260246000fd5b7f4e487b7100000000000000000000000000000000000000000000000000000000600052602260045260246000fd5b6000600282049050600182168061011d57607f821691505b6020821081036101305761012f6100d6565b5b50919050565b60008190508160005260206000209050919050565b60006020601f8301049050919050565b600082821b905092915050565b6000600883026101987fffffffffffffffffffffffffffffffffffffffffffffffffffffffffffffffff8261015b565b6101a2868361015b565b95508019841693508086168417925050509392505050565b6000819050919050565b6000819050919050565b60006101e96101e46101df846101ba565b6101c4565b6101ba565b9050919050565b6000819050919050565b610203836101ce565b61021761020f826101f0565b848454610168565b825550505050565b600090565b61022c61021f565b6102378184846101fa565b505050565b5b8181101561025b57610250600082610224565b60018101905061023d565b5050565b601f8211156102a05761027181610136565b61027a8461014b565b81016020851015610289578190505b61029d6102958561014b565b83018261023c565b50505b505050565b600082821c905092915050565b60006102c3600019846008026102a5565b1980831691505092915050565b60006102dc83836102b2565b9150826002028217905092915050565b6102f58261009c565b67ffffffffffffffff81111561030e5761030d6100a7565b5b6103188254610105565b61032382828561025f565b600060209050601f8311600181146103565760008415610344578287015190505b61034e85826102d0565b8655506103b6565b601f19841661036486610136565b60005b8281101561038c57848901518255600182019150602085019450602081019050610367565b868310156103a957848901516103a5601f8916826102b2565b8355505b6001600288020188555050505b505050505050565b611b61806103cd6000396000f3fe60806040526004361061007b5760003560e01c80638642269e1161004e5780638642269e146101285780638da5cb5b14610144578063ad6689501461016f578063ff68fa6e146101ad5761007b565b806306fdde03146100805780633ccfd60b146100ab578063543e2038146100c2578063713d856b146100eb575b600080fd5b34801561008c57600080fd5b506100956101f1565b6040516100a29190611014565b60405180910390f35b3480156100b757600080fd5b506100c061027f565b005b3480156100ce57600080fd5b506100e960048036038101906100e491906111b5565b6103aa565b005b3480156100f757600080fd5b50610112600480360381019061010d9190611339565b610555565b60405161011f9190611375565b60405180910390f35b610142600480360381019061013d9190611390565b61056d565b005b34801561015057600080fd5b50610159610a4a565b60405161016691906113cc565b60405180910390f35b34801561017b57600080fd5b50610196600480360381019061019191906113e7565b610a70565b6040516101a4929190611545565b60405180910390f35b3480156101b957600080fd5b506101d460048036038101906101cf9190611390565b610d1c565b6040516101e8989796959493929190611575565b60405180910390f35b600080546101fe9061163e565b80601f016020809104026020016040519081016040528092919081815260200182805461022a9061163e565b80156102775780601f1061024c57610100808354040283529160200191610277565b820191906000526020600020905b81548152906001019060200180831161025a57829003601f168201915b505050505081565b600160009054906101000a900473ffffffffffffffffffffffffffffffffffffffff1673ffffffffffffffffffffffffffffffffffffffff163373ffffffffffffffffffffffffffffffffffffffff161461030f576040517f08c379a0000000000000000000000000000000000000000000000000000000008152600401610306906116bb565b60405180910390fd5b6000600160009054906101000a900473ffffffffffffffffffffffffffffffffffffffff1673ffffffffffffffffffffffffffffffffffffffff16476040516103579061170c565b60006040518083038185875af1925050503d8060008114610394576040519150601f19603f3d011682016040523d82523d6000602084013e610399565b606091505b50509050806103a757600080fd5b50565b600160009054906101000a900473ffffffffffffffffffffffffffffffffffffffff1673ffffffffffffffffffffffffffffffffffffffff163373ffffffffffffffffffffffffffffffffffffffff161461043a576040517f08c379a0000000000000000000000000000000000000000000000000000000008152600401610431906116bb565b60405180910390fd5b60006040518061010001604052808a815260200189815260200188815260200187815260200186815260200185815260200184815260200183815250905080600260008b81526020019081526020016000206000820151816000015560208201518160010190816104ab91906118cd565b506040820151816002015560608201518160030190816104cb91906118cd565b5060808201518160040190816104e191906118cd565b5060a08201518160050190816104f791906118cd565b5060c0820151816006015560e082015181600701559050507ffdbe2a012c10ec01592653978eaa09b5ca60b143a0e617505b2ebcbd911ec5b88888846040516105429392919061199f565b60405180910390a1505050505050505050565b60036020528060005260406000206000915090505481565b60006002600083815260200190815260200160002060405180610100016040529081600082015481526020016001820180546105a89061163e565b80601f01602080910402602001604051908101604052809291908181526020018280546105d49061163e565b80156106215780601f106105f657610100808354040283529160200191610621565b820191906000526020600020905b81548152906001019060200180831161060457829003601f168201915b50505050508152602001600282015481526020016003820180546106449061163e565b80601f01602080910402602001604051908101604052809291908181526020018280546106709061163e565b80156106bd5780601f10610692576101008083540402835291602001916106bd565b820191906000526020600020905b8154815290600101906020018083116106a057829003601f168201915b505050505081526020016004820180546106d69061163e565b80601f01602080910402602001604051908101604052809291908181526020018280546107029061163e565b801561074f5780601f106107245761010080835404028352916020019161074f565b820191906000526020600020905b81548152906001019060200180831161073257829003601f168201915b505050505081526020016005820180546107689061163e565b80601f01602080910402602001604051908101604052809291908181526020018280546107949061163e565b80156107e15780601f106107b6576101008083540402835291602001916107e1565b820191906000526020600020905b8154815290600101906020018083116107c457829003601f168201915b5050505050815260200160068201548152602001600782015481525050905080604001513414610846576040517f08c379a000000000000000000000000000000000000000000000000000000000815260040161083d90611a29565b60405180910390fd5b60006040518060400160405280428152602001838152509050600360003373ffffffffffffffffffffffffffffffffffffffff1673ffffffffffffffffffffffffffffffffffffffff16815260200190815260200160002060008154809291906108af90611a78565b919050555080600460003373ffffffffffffffffffffffffffffffffffffffff1673ffffffffffffffffffffffffffffffffffffffff1681526020019081526020016000206000600360003373ffffffffffffffffffffffffffffffffffffffff1673ffffffffffffffffffffffffffffffffffffffff1681526020019081526020016000205481526020019081526020016000206000820151816000015560208201518160010160008201518160000155602082015181600101908161097691906118cd565b5060408201518160020155606082015181600301908161099691906118cd565b5060808201518160040190816109ac91906118cd565b5060a08201518160050190816109c291906118cd565b5060c0820151816006015560e0820151816007015550509050506001600260008581526020019081526020016000206007016000828254610a039190611ac0565b925050819055507f1cbc5ab135991bd2b6a4b034a04aa2aa086dac1371cb9b16b8b5e2ed6b036bed338442604051610a3d93929190611af4565b60405180910390a1505050565b600160009054906101000a900473ffffffffffffffffffffffffffffffffffffffff1681565b600460205281600052604060002060205280600052604060002060009150915050806000015490806001016040518061010001604052908160008201548152602001600182018054610ac19061163e565b80601f0160208091040260200160405190810160405280929190818152602001828054610aed9061163e565b8015610b3a5780601f10610b0f57610100808354040283529160200191610b3a565b820191906000526020600020905b815481529060010190602001808311610b1d57829003601f168201915b5050505050815260200160028201548152602001600382018054610b5d9061163e565b80601f0160208091040260200160405190810160405280929190818152602001828054610b899061163e565b8015610bd65780601f10610bab57610100808354040283529160200191610bd6565b820191906000526020600020905b815481529060010190602001808311610bb957829003601f168201915b50505050508152602001600482018054610bef9061163e565b80601f0160208091040260200160405190810160405280929190818152602001828054610c1b9061163e565b8015610c685780601f10610c3d57610100808354040283529160200191610c68565b820191906000526020600020905b815481529060010190602001808311610c4b57829003601f168201915b50505050508152602001600582018054610c819061163e565b80601f0160208091040260200160405190810160405280929190818152602001828054610cad9061163e565b8015610cfa5780601f10610ccf57610100808354040283529160200191610cfa565b820191906000526020600020905b815481529060010190602001808311610cdd57829003601f168201915b5050505050815260200160068201548152602001600782015481525050905082565b6002602052806000526040600020600091509050806000015490806001018054610d459061163e565b80601f0160208091040260200160405190810160405280929190818152602001828054610d719061163e565b8015610dbe5780601f10610d9357610100808354040283529160200191610dbe565b820191906000526020600020905b815481529060010190602001808311610da157829003601f168201915b505050505090806002015490806003018054610dd99061163e565b80601f0160208091040260200160405190810160405280929190818152602001828054610e059061163e565b8015610e525780601f10610e2757610100808354040283529160200191610e52565b820191906000526020600020905b815481529060010190602001808311610e3557829003601f168201915b505050505090806004018054610e679061163e565b80601f0160208091040260200160405190810160405280929190818152602001828054610e939061163e565b8015610ee05780601f10610eb557610100808354040283529160200191610ee0565b820191906000526020600020905b815481529060010190602001808311610ec357829003601f168201915b505050505090806005018054610ef59061163e565b80601f0160208091040260200160405190810160405280929190818152602001828054610f219061163e565b8015610f6e5780601f10610f4357610100808354040283529160200191610f6e565b820191906000526020600020905b815481529060010190602001808311610f5157829003601f168201915b5050505050908060060154908060070154905088565b600081519050919050565b600082825260208201905092915050565b60005b83811015610fbe578082015181840152602081019050610fa3565b60008484015250505050565b6000601f19601f8301169050919050565b6000610fe682610f84565b610ff08185610f8f565b9350611000818560208601610fa0565b61100981610fca565b840191505092915050565b6000602082019050818103600083015261102e8184610fdb565b905092915050565b6000604051905090565b600080fd5b600080fd5b6000819050919050565b61105d8161104a565b811461106857600080fd5b50565b60008135905061107a81611054565b92915050565b600080fd5b600080fd5b7f4e487b7100000000000000000000000000000000000000000000000000000000600052604160045260246000fd5b6110c282610fca565b810181811067ffffffffffffffff821117156110e1576110e061108a565b5b80604052505050565b60006110f4611036565b905061110082826110b9565b919050565b600067ffffffffffffffff8211156111205761111f61108a565b5b61112982610fca565b9050602081019050919050565b82818337600083830152505050565b600061115861115384611105565b6110ea565b90508281526020810184848401111561117457611173611085565b5b61117f848285611136565b509392505050565b600082601f83011261119c5761119b611080565b5b81356111ac848260208601611145565b91505092915050565b600080600080600080600080610100898b0312156111d6576111d5611040565b5b60006111e48b828c0161106b565b985050602089013567ffffffffffffffff81111561120557611204611045565b5b6112118b828c01611187565b97505060406112228b828c0161106b565b965050606089013567ffffffffffffffff81111561124357611242611045565b5b61124f8b828c01611187565b955050608089013567ffffffffffffffff8111156112705761126f611045565b5b61127c8b828c01611187565b94505060a089013567ffffffffffffffff81111561129d5761129c611045565b5b6112a98b828c01611187565b93505060c06112ba8b828c0161106b565b92505060e06112cb8b828c0161106b565b9150509295985092959890939650565b600073ffffffffffffffffffffffffffffffffffffffff82169050919050565b6000611306826112db565b9050919050565b611316816112fb565b811461132157600080fd5b50565b6000813590506113338161130d565b92915050565b60006020828403121561134f5761134e611040565b5b600061135d84828501611324565b91505092915050565b61136f8161104a565b82525050565b600060208201905061138a6000830184611366565b92915050565b6000602082840312156113a6576113a5611040565b5b60006113b48482850161106b565b91505092915050565b6113c6816112fb565b82525050565b60006020820190506113e160008301846113bd565b92915050565b600080604083850312156113fe576113fd611040565b5b600061140c85828601611324565b925050602061141d8582860161106b565b9150509250929050565b6114308161104a565b82525050565b600082825260208201905092915050565b600061145282610f84565b61145c8185611436565b935061146c818560208601610fa0565b61147581610fca565b840191505092915050565b6000610100830160008301516114996000860182611427565b50602083015184820360208601526114b18282611447565b91505060408301516114c66040860182611427565b50606083015184820360608601526114de8282611447565b915050608083015184820360808601526114f88282611447565b91505060a083015184820360a08601526115128282611447565b91505060c083015161152760c0860182611427565b5060e083015161153a60e0860182611427565b508091505092915050565b600060408201905061155a6000830185611366565b818103602083015261156c8184611480565b90509392505050565b60006101008201905061158b600083018b611366565b818103602083015261159d818a610fdb565b90506115ac6040830189611366565b81810360608301526115be8188610fdb565b905081810360808301526115d28187610fdb565b905081810360a08301526115e68186610fdb565b90506115f560c0830185611366565b61160260e0830184611366565b9998505050505050505050565b7f4e487b7100000000000000000000000000000000000000000000000000000000600052602260045260246000fd5b6000600282049050600182168061165657607f821691505b6020821081036116695761166861160f565b5b50919050565b7f4f6e6c79206f776e65722063616e206c697374207468652070726f6475637473600082015250565b60006116a5602083610f8f565b91506116b08261166f565b602082019050919050565b600060208201905081810360008301526116d481611698565b9050919050565b600081905092915050565b50565b60006116f66000836116db565b9150611701826116e6565b600082019050919050565b6000611717826116e9565b9150819050919050565b60008190508160005260206000209050919050565b60006020601f8301049050919050565b600082821b905092915050565b6000600883026117837fffffffffffffffffffffffffffffffffffffffffffffffffffffffffffffffff82611746565b61178d8683611746565b95508019841693508086168417925050509392505050565b6000819050919050565b60006117ca6117c56117c08461104a565b6117a5565b61104a565b9050919050565b6000819050919050565b6117e4836117af565b6117f86117f0826117d1565b848454611753565b825550505050565b600090565b61180d611800565b6118188184846117db565b505050565b5b8181101561183c57611831600082611805565b60018101905061181e565b5050565b601f8211156118815761185281611721565b61185b84611736565b8101602085101561186a578190505b61187e61187685611736565b83018261181d565b50505b505050565b600082821c905092915050565b60006118a460001984600802611886565b1980831691505092915050565b60006118bd8383611893565b9150826002028217905092915050565b6118d682610f84565b67ffffffffffffffff8111156118ef576118ee61108a565b5b6118f9825461163e565b611904828285611840565b600060209050601f8311600181146119375760008415611925578287015190505b61192f85826118b1565b865550611997565b601f19841661194586611721565b60005b8281101561196d57848901518255600182019150602085019450602081019050611948565b8683101561198a5784890151611986601f891682611893565b8355505b6001600288020188555050505b505050505050565b600060608201905081810360008301526119b98186610fdb565b90506119c86020830185611366565b6119d56040830184611366565b949350505050565b7f706c7a2070617920657861637420707269636500000000000000000000000000600082015250565b6000611a13601383610f8f565b9150611a1e826119dd565b602082019050919050565b60006020820190508181036000830152611a4281611a06565b9050919050565b7f4e487b7100000000000000000000000000000000000000000000000000000000600052601160045260246000fd5b6000611a838261104a565b91507fffffffffffffffffffffffffffffffffffffffffffffffffffffffffffffffff8203611ab557611ab4611a49565b5b600182019050919050565b6000611acb8261104a565b9150611ad68361104a565b9250828203905081811115611aee57611aed611a49565b5b92915050565b6000606082019050611b0960008301866113bd565b611b166020830185611366565b611b236040830184611366565b94935050505056fea26469706673582212205069c7d2c59948f8aefd40b63a674404b86c57e677f77ff001db00e15ee1493264736f6c634300081b0033",
  "linkReferences": {},
  "deployedLinkReferences": {}
}